:020000040800F2
:10000000B005002079020008A12500089925000804
:100010009D2500087D140008413100080000000003
:10002000000000000000000000000000992F000800
:100030008114000800000000A52500089D2F00087D
:10004000930200089302000893020008930200083C
:10005000930200089302000893020008930200082C
:10006000930200089302000893020008930200081C
:10007000930200089302000893020008930200080C
:1000800093020008930200089302000893020008FC
:1000900093020008930200089302000893020008EC
:1000A00093020008B52F000893020008930200088D
:1000B00093020008930200089302000893020008CC
:1000C00093020008930200089302000893020008BC
:1000D00093020008930200089302000893020008AC
:1000E000930200089302000893020008930200089C
:1000F000930200089302000893020008930200088C
:10010000930200089302000893020008930200087B
:10011000930200089302000893020008930200086B
:10012000930200089302000893020008930200085B
:10013000930200089302000893020008930200084B
:10014000930200089302000893020008930200083B
:10015000930200089302000893020008930200082B
:10016000930200089302000893020008930200081B
:10017000930200089302000893020008930200080B
:1001800093020008930200089302000893020008FB
:100190009302000800000000930200089302000888
:1001A00093020008930200089302000893020008DB
:1001B00093020008930200089302000893020008CB
:1001C00093020008930200089302000893020008BB
:1001D000930200089302000800F002F800F03CF8D7
:1001E0000AA090E8000C82448344AAF10107DA4592
:1001F00001D100F031F8AFF2090EBAE80F0013F0A8
:10020000010F18BFFB1A43F001031847C03B000061
:10021000103C0000103A24BF78C878C1FAD85207C1
:1002200024BF30C830C144BF04680C607047000070
:100230000023002400250026103A28BF78C1FBD8EF
:10024000520728BF30C148BF0B6070471FB503F08D
:10025000F3FA1FBD10B510BD01F094F81146FFF779
:10026000F5FF02F06FFF01F0B2F803B4FFF7F2FF01
:1002700003BC01F0B9F8000009488047094800476D
:10028000FEE7FEE7FEE7FEE7FEE7FEE7FEE7FEE746
:10029000FEE7FEE704480549054A064B70470000A3
:1002A000A12F0008D9010008B0050020B0050020EA
:1002B000B0070020B00100200100C9B2002906D01B
:1002C0000100C9B2012902D0C0B2022801D1012027
:1002D00000E00020C0B2704770B546F2796500F0CA
:1002E0003FFB012822D1DFF8046700203070002096
:1002F0000400032C0FD2DFF8F806015D06EB810144
:10030000DFF8F026CA62005D06EB800041F61F614F
:100310008163641CEDE7DFF8DC067064B0642021C3
:1003200016F12C0002F0FCFDF06407E05FF0FF30F6
:10033000DFF8B816C8644AF6B5200500280080B278
:1003400070BD10B504000021200000F0BAFA10BD05
:1003500010B504000121200000F0B3FA10BD10B563
:1003600004000221200000F0ACFA10BDF8B5040032
:1003700046F27965002C03D14AF6B520050020E04D
:10038000DFF8686616F12C07F26C2021380002F0C5
:1003900093FDDFF86416884203D04AF6B5200500C5
:1003A0000FE000F081FC70643078002802D1706C9E
:1003B000206001E0306920602021380002F0B0FDAB
:1003C000F064280080B2F2BD2DE9F04104000D0078
:1003D00046F27966002C01D0002D03D14AF6B520F3
:1003E000060021E0DFF8047617F12C08FA6C2021D2
:1003F000404602F061FDDFF80016884203D04AF65D
:10040000B520060010E0280000F071FC7864387810
:10041000002802D1786C206001E03869206020213A
:10042000404602F07DFDF864300080B2BDE8F08106
:10043000F8B5040046F27965002C03D14AF6B520E0
:10044000050020E0DFF8A46516F12C07F26C2021EE
:10045000380002F031FDDFF8A015884203D04AF6DB
:10046000B52005000FE000F0CBFC70643078002868
:1004700002D1706C206001E03069206020213800DA
:1004800002F04EFDF064280080B2F2BDF8B5040021
:1004900046F27965002C03D14AF6B520050020E02C
:1004A000DFF8486516F12C07F26C2021380002F0C5
:1004B00003FDDFF84415884203D04AF6B520050055
:1004C0000FE000F06FFC70643078002802D1706C8F
:1004D000206001E0306920602021380002F020FD1A
:1004E000F064280080B2F2BDF8B5040046F27965E8
:1004F000002C03D14AF6B520050020E0DFF8EC64BB
:1005000016F12C07F26C2021380002F0D5FCDFF840
:10051000E814884203D04AF6B52005000FE000F049
:10052000D6FB70643078002802D1706C206001E046
:10053000306920602021380002F0F2FCF0642800CD
:1005400080B2F2BDF8B5040046F27965002C03D103
:100550004AF6B520050020E0DFF8906416F12C077C
:10056000F26C2021380002F0A7FCDFF88C148842DE
:1005700003D04AF6B52005000FE000F013FDB0648B
:100580003078002802D1B06C206001E070692060F2
:100590002021380002F0C4FCF064280080B2F2BDD3
:1005A0002DE9F04104000D0046F27966002C01D0DF
:1005B000002D03D14AF6B520060021E0DFF82C74A7
:1005C00017F12C08FA6C2021404602F075FCDFF888
:1005D0002814884203D04AF6B520060010E028000F
:1005E00000F003FDB8643878002802D1B86C2060B0
:1005F00001E0786920602021404602F091FCF86417
:10060000300080B2BDE8F081F8B5040046F27965AB
:10061000002C03D14AF6B520050020E0DFF8CC63BA
:1006200016F12C07F26C2021380002F045FCDFF8AF
:10063000C813884203D04AF6B52005000FE000F049
:1006400065FDB0643078002802D1B06C206001E014
:10065000706920602021380002F062FCF0642800FC
:1006600080B2F2BDF8B5040046F27965002C03D1E2
:100670004AF6B520050020E0DFF8706316F12C077C
:10068000F26C2021380002F017FCDFF86C1388426E
:1006900003D04AF6B52005000FE000F009FDB06474
:1006A0003078002802D1B06C206001E070692060D1
:1006B0002021380002F034FCF064280080B2F2BD42
:1006C000F8B5040046F27965002C03D14AF6B5204E
:1006D000050020E0DFF8146316F12C07F26C2021EE
:1006E000380002F0E9FBDFF81013884203D04AF625
:1006F000B52005000FE000F068FCB06430780028F9
:1007000002D1B06C206001E07069206020213800C7
:1007100002F006FCF064280080B2F2BDF8B50400D7
:1007200046F27966002C03D14AF6B52006008BE02C
:1007300041F6E1702169814210D02169AF4A9142AE
:100740000CD021694DF22D32914207D02169A94A7E
:10075000914203D02169AA4A91424FD1E168814276
:1007600010D0E168A54A91420CD0E1684DF22D32DB
:10077000914207D0E1689F4A914203D0E168A04AC4
:1007800091423BD12168814210D021689B4A91421D
:100790000CD021684DF22D32914207D02168954A44
:1007A000914203D02168964A914227D161688142E3
:1007B00010D06168914A91420CD061684DF22D329F
:1007C000914207D061688B4A914203D061688C4A9C
:1007D000914213D1A168814214D0A0688749884210
:1007E00010D0A0684DF22D3188420BD0A06881490D
:1007F000884207D0A0688249884203D04AF6B520D3
:10080000060021E0794FFA6C202117F12C0002F04C
:1008100053FB7949884203D04AF6B520060013E01D
:100820000120387000200500032D09D27048415D79
:1008300007EB8101405D54F8200048606D1CF3E730
:10084000E068386120697861300080B2F2BD10B58F
:10085000664CE26C202114F12C0002F02DFB66495D
:10086000884202D04AF6B52003E00020207046F20C
:10087000796080B210BD7FB504000D006846614903
:1008800091E84C0080E84C005F4E68462900C9B2F0
:1008900050F8211020002A00D2B206EBC2025268A2
:1008A000904741F6E171884209D121682A00D2B20D
:1008B00056F83220914202D04DF22D31080004B09A
:1008C00070BD2DE9F04104000D0046F27966002C60
:1008D00005D02800C0B2FFF7EFFC002803D14AF68C
:1008E000B520060038E0414F17F12C08FA6C2021A2
:1008F000404602F0E1FA4049884203D04AF6B5206A
:10090000060029E041F61F602900C9B207EB81010A
:1009100088632900C9B22800C0B207EB80003830D4
:10092000FFF7A9FF2900C9B207EB8101C862387837
:10093000002806D12800C0B207EB8000C06A206002
:1009400005E02800C0B207EB80004068206020214D
:10095000404602F0E5FAF864300080B2BDE8F0816C
:100960002DE9F8430124002541F28836274FD7F8B6
:10097000008018F48058386850F480503860DFF8F0
:1009800090905FF0FF30C9F800000021214A11600B
:10099000214900220A60214A10602148214A106042
:1009A000086850F0010008606D1CAE4202D20020C1
:1009B000040003E000F03AF80028F5D02000C0B2AF
:1009C000002808D01848C9F8000000F038F80028BE
:1009D00001D100200400B8F5805F03D0386830F4FE
:1009E000805038602000C0B2BDE8F28320000020B3
:1009F00060380008FFFF01005D445100554B0100C5
:100A000076A90100543800086438000848100240F4
:100A100000300240043002400830024010300240F2
:100A2000B71DC10414300240C2A507F4094800688C
:100A3000C00701D5002000E00120C0B27047064881
:100A400000680649884201D0002000E00120C0B2C1
:100A5000704700000830024000300240CDB5E8B5D4
:100A60002DE9F84F98B004000E0041F6E177B84642
:100A7000DFF80CB168464349602200F027FC424889
:100A8000864277D1002C75D05FF001095FF0010A32
:100A9000BAF1210F1AD21BF1070B484602F004FCF1
:100AA000814507D08BF4634B9BF0DC0B4DF22D306E
:100AB00080460BE0354890EA0B0B5FEA49095FEA94
:100AC00059095FEA49091AF1010AE1E7B84520D15D
:100AD0007FF00100814601208246BAF1210F18D231
:100AE0001BF1070B484602F0DFFB814507D08BF472
:100AF000634B9BF0DC0B4DF22D30804609E0234820
:100B000090EA0B0B5FEA490959F001091AF1010A51
:100B1000E3E7B84518D11E4890EA0B0B002005000A
:100B20000C2D11D2684650F835008047012803D0BB
:100B30004DF22D30804607E0684600EBC500406866
:100B400090EA0B0B6D1CEBE7206841F61F618842B1
:100B500002D0104880460FE0C4F800B04DF22D30AE
:100B6000804503D021680C4A914205D080460B484D
:100B7000206001E007488046404619B0BDE8F08F8C
:100B800024A95400943C0008027B0C000F31120091
:100B9000BDC8340076A9010021D90400599593F00D
:100BA0002DE9F84304000D0041F6E176DFF8889066
:100BB00000F033F800282BD12048854228D1002CA2
:100BC00026D0484602F046FC07005FF00008B8F166
:100BD000100F06D21A481B4941F8280018F10108E5
:100BE000F5E7380002F075FC8146206841F61F6188
:100BF000884202D0144806000CE0C4F80090206837
:100C00004AF6C531884205D04DF22D30060001E08C
:100C10000D4806003000BDE8F28310B5012400F055
:100C200047FB0A49884205D102F000FEC00701D403
:100C300000200400200010BDF6620300BC385800FC
:100C4000ADDEADDE7000002076A9010032A82E00D6
:100C5000F8B504000D0041F6E1760F4F0F488542CC
:100C600016D1002C14D0380002F08AFC070020684E
:100C700041F61F61884202D0094806000AE0276059
:100C800020680849884205D04DF22D30060001E069
:100C9000034806003000F2BDBB813900DA3650004F
:100CA00076A90100CE52C45510B5B74C0020206083
:100CB000002060600020A06000202073012060738D
:100CC0001021200002F02CF92061B04810BDAE4880
:100CD0000021016000214160002181600021017339
:100CE000002141735FF0FF310161A84870472DE991
:100CF000F0410500A54E3700DFF88C82D8F81020AF
:100D00001021404602F0D8F8A149884202D0A148FB
:100D1000070044E098F80D00012802D09D48070024
:100D200037E0002D02D02868002802D1994807003A
:100D30002FE028680400216897480068091A880590
:100D400001D09448070020686168884201D3914827
:100D500007006168491C2068091A11F0030F01D0CF
:100D60008C480700A468002C02D08A488742E2D150
:100D7000B7420ED1C8F800502868C8F804002868A7
:100D80000068C8F80800002088F80C00022088F8E5
:100D90000D001021404602F0C3F8C8F810003800DA
:100DA000BDE8F08138B5794C774D2A6910212800CB
:100DB00002F082F87649884202D0764804001DE0AD
:100DC000687B022802D07348040012E028680028DB
:100DD00003D028680068002802D16E48040008E0AB
:100DE000286800686860286800680068A8600020BB
:100DF00028731021280002F093F82861200032BDEA
:100E000038B5624C604D2A691021280002F054F870
:100E10005F49884202D05F48040020E0687B0228D6
:100E200002D05C48040015E02868002805D0A868B6
:100E3000002802D06868002802D15648040009E062
:100E400003206873287B002802D100F00AF8040010
:100E5000022068731021280002F062F82861200047
:100E600032BD2DE9F84F5FF0000B474F3868D0F8DE
:100E700004805FEA082801F0F9FFDFF81C91474879
:100E8000D0F800A00168491CD9F80000091A8900AF
:100E9000BAEB912A1AF1010AB968D9F80000091AC7
:100EA000880502D03B48050052E078684168491C3B
:100EB000B868091AB1F5806F07D278684168491C93
:100EC000B868091A89080C0002E04FF48070040029
:100ED000002C02D12F4805003AE0B968D9F800008B
:100EE000091A890A5AF82100060032002100B86860
:100EF00000F03BF805002A48854229D114EB0B0B82
:100F0000B86810EB840079684968491C884204D2AB
:100F1000B86810EB8400B8601AE0B86810EB840081
:100F200079684968491C884210D17868806800282F
:100F300006D078688068786078680068B86007E0F4
:100F40000120387341F6E170050001E01148050009
:100F5000387B002804D1C34502D2114885429BD07A
:100F600001F066FF2800BDE8F28F70B504000D00A7
:100F700016002900200001F04FFF864202D04DF2FA
:100F80002D3000E0064870BDB0000020FFFF0100DA
:100F90005D44510076A90100E4000020E00000203B
:100FA000554B010010B5BB4C002020600020606054
:100FB0000020A06000202073012060731021200019
:100FC00001F0AEFF2061B44810BDB24800210160BD
:100FD00000214160002181600021017300214173E3
:100FE0005FF0FF310161AC4870472DE9F041050029
:100FF000DFF8A4824646A74F3A691021380001F075
:101000005BFFA649884202D0A54806004DE0787BE8
:10101000012802D0A248060042E0002D02D0286834
:10102000002802D19E4806003AE028680400616862
:10103000491C2068091A11F01F0F01D098480600BA
:1010400020686168884201D3954806009549086880
:10105000002813D008682268904203D360680A68A9
:10106000904209D208681F302268904206D3606817
:1010700009681F31884201D389480600A468002C02
:1010800002D087488642D2D1464509D13D602868C2
:10109000786028680068B860002038730220787390
:1010A0001021380001F03CFF38613000BDE8F081CC
:1010B00038B5794C774D2A691021280001F0FCFEE3
:1010C0007649884202D0764804001DE0687B0228F9
:1010D00002D07348040012E02868002803D0286872
:1010E0000068002802D16E48040008E02868006803
:1010F0006860286800680068A860002028731021D4
:10110000280001F00DFF2861200032BD38B5624C87
:10111000604D2A691021280001F0CEFE5F49884207
:1011200002D05F48040020E0687B022802D05C48BF
:10113000040015E02868002805D0A868002802D01F
:101140006868002802D15648040009E0032068734B
:10115000287B002802D100F00AF8040002206873FE
:101160001021280001F0DCFE2861200032BD2DE9AD
:10117000F84F5FF0000A4C4CA346464D2868406883
:101180004001009001F0F6FE464E5FF055313068A8
:1011900002F00BFB070001F0F7FE012F02D1DFF890
:1011A0000C8101E04DF22D38DFF80091C8456AD17D
:1011B0001BF10B0BA8686968096888420BD101F024
:1011C000D9FE5FF055323168A86802F052FA070084
:1011D00001F0DAFE1DE0A868103069684968491C12
:1011E00088420BD101F0C6FE5FF055323168A86825
:1011F00002F08DFA070001F0C7FE0AE001F0BAFE26
:101200005FF055323168A86802F0E2F9070001F09A
:10121000BBFE012F01D1C84602E04DF22D308046C1
:10122000C84526D11AF1040AA868103069684968CF
:10123000491C884203D2A8681030A86019E0A86849
:10124000103069684968491C884210D16868806814
:10125000002806D068688068686068680068A860D0
:1012600007E00120287341F6E170804601E00C4858
:101270008046BBF10B0B287B002804D100988245E7
:1012800001D2C84594D0A34501D0054880464046C8
:10129000BDE8F28FC4000020FFFF01005D44510053
:1012A00076A90100E8000020D2412900554B010039
:1012B00010B5044C02F0BDFAC00501D1024804008B
:1012C000200010BDE0182F0032A82E0010B5203AE3
:1012D000C0F00B80B1E81850A0E81850B1E81850E1
:1012E000A0E81850203ABFF4F5AF5FEA027C24BFB3
:1012F000B1E81850A0E8185044BF18C918C0BDE89C
:1013000010405FEA827C24BF51F8043B40F8043B64
:1013100008BF7047D20728BF31F8023B48BF11F819
:10132000012B28BF20F8023B48BF00F8012B704773
:101330004FF0000200B5134694469646203922BF6E
:10134000A0E80C50A0E80C50B1F12001BFF4F7AFB9
:10135000090728BFA0E80C5048BF0CC05DF804EB9B
:10136000890028BF40F8042B08BF704748BF20F809
:10137000022B11F0804F18BF00F8012B7047704707
:1013800070477047754600F02BF8AE460500694679
:10139000534620F00700854618B020B5FEF77AFFC7
:1013A000BDE820404FF000064FF000074FF0000866
:1013B0004FF0000BAC46ACE8C009ACE8C009ACE8A3
:1013C000C009ACE8C00921F007018D46704710B58F
:1013D0000446AFF300802046BDE81040FEF745BF4D
:1013E00000487047F000002001491820ABBEFEE71E
:1013F000260002007047000080B586B041F24C0024
:10140000C4F20200016841F001010160006801A915
:1014100000F001000190019820200190012002902D
:1014200000200390032004904FF0904000F03EF81D
:101430004FF090402021002200F016F9002006B065
:1014400080BD000080B54FF090402021002200F0C8
:101450000BF9002080BD000080B54FF090402021A6
:10146000012200F001F9002080BD000080B54FF09E
:101470009040202100F0F0F8002080BDFEE7000041
:1014800070470000B0B5044600F0F4F8054640F29D
:10149000D800C2F200004068611C18BF044400BFBD
:1014A00000F0E8F8401BA042FAD3B0BD2DE9F04FA0
:1014B00082B00D68002D00F0CB8041F2004400F1B5
:1014C0003847C4F6000406224FEAB726A04208BFF8
:1014D0000522052E38BF4FEAB722002401274FF01E
:1014E000000E0026009209E00D68013635FA06F27A
:1014F0000EF1040E04F1020400F0AA8007FA06FBC4
:1015000015EA0B08F0D0D1F804A003220AF0030C6E
:10151000ACF10105A240012D6FEA020910D88268E2
:10152000CD6802EA0902A5402A4382604268CAF3F4
:10153000001522EA0B02B5402A43426006E000BFD4
:10154000BCF1030F02D14FF0030C21E0C2688D689B
:1015500002EA0902A5402A43BCF1020FC26017D17A
:101560006FF0030202EA560202440EF01C030F253C
:10157000D2F820C005FA03FA0D692CEA0A0C05FA24
:1015800003F343EA0C031362D1F804A00AF0030C3E
:1015900002680CFA04F302EA09021A431AF4403F03
:1015A0000260A1D041F26003C4F202031A6840F263
:1015B000004942F001021A601A68C4F2010902F0FF
:1015C00001020192019A26F003024FF6084A4A44AA
:1015D000CFF6FF7A52F80AC00EF00C050F23009FD9
:1015E000AB402CEA030307FA05F52B4342F80A3017
:1015F000D9F808C04B684CEA0805DA0258BF2CEA53
:10160000080540F20C4CC9F80850C4F2010CDCF893
:1016100000209F0242EA080558BF22EA0805CCF8DC
:101620000050D9F804209D0342EA080758BF22EA77
:101630000807C9F80470D9F80020DB0342EA08075C
:1016400058BF22EA0807C9F8007001274CE700BF1D
:1016500002B0BDE8F08F0000426902EA0103914345
:1016600041EA0341816170471823002A08BF2823FB
:10167000C150704740F2A810C2F2000000687047E5
:1016800040F2D80040F2A811C2F20000C2F20001FC
:1016900040680A68104408607047000080B5032065
:1016A00000F070F80F2000F009F800281CBF01209E
:1016B00080BD00F029F8002080BD000070B540F228
:1016C000D806C2F200067168E1B1044640F2EC00AF
:1016D000C2F200004FF47A720068B2FBF1F1B0FB85
:1016E000F1F000F0D5FC0F2C4FF0010508D838B907
:1016F0004FF0FF3021460022002500F017F834603B
:10170000284670BD012070BD70470000002848BF0A
:10171000704700F01F01012202FA01F14EF200129F
:101720004009CEF2000242F82010704710B54EF684
:101730000C5CCEF2000CDCF80030C3F3022E8EF00D
:101740000704042C28BF0424BEF103034FF0FF3E1E
:101750000EFA04F438BF0023A14399400EFA03F3B4
:101760009A43114300F00F0200F160430901043A6B
:1017700003F564436244002848BF02F10C0319706A
:1017800010BD00004EF60C51CEF200010A684FF673
:10179000FF031A4060F30A2242F0806040F0FD70BF
:1017A00008607047B0F5007F42D0002840F080808C
:1017B00047F21400C4F2000050F8141CC26E01F489
:1017C000C06122F48072B1F5806FC2662ED150F8EC
:1017D000141C012262F34A2140F8141C40F2EC016F
:1017E000C2F200010968322251434DF68362C4F20D
:1017F0001B32A1FB0212910C0268520511D54A1C42
:101800000FD0026852050CD559B10268520508D5AF
:10181000012906D00268520503D50229A1F104016D
:10182000EAD10068400544BF03207047002070479C
:1018300047F21400C4F2000050F8141CC26E01F408
:10184000C06142F48072B1F5806FC266EED150F88B
:10185000141C012262F34A2140F8141C40F2EC01EE
:10186000C2F200010968322251434DF68362C4F28C
:101870001B32A1FB0212910C0268520511D54A1CC1
:101880000FD0026852050CD559B10268520508D52F
:10189000012906D00268520503D50229A1F10401ED
:1018A000EAD10068400544BF03207047BEE700BF8F
:1018B00047F21400C4F2000050F8141C022262F334
:1018C0004A2140F8141C0020704700002DE9F04721
:1018D00000286DD042F2000AC4F2020A0446DAF887
:1018E00000000D4600F00F0088420CD2DAF800002C
:1018F00020F00F002843CAF80000DAF8000000F0DA
:101900000F00A84254D1216841F20808C807C4F268
:10191000020803D1880740F1D880BDE06068022842
:101920003AD0032840D158F8082C920140D5D8F875
:101930000420D8F8043042F20046C3F3031302F047
:101940000302D8F804700133C0F2F406032A04BF7E
:1019500041F20026C0F27A06B6FBF3F2D8F8043062
:10196000C7F306277A43C3F34163022707EB430318
:10197000B2FBF3F24BF20043C0F2C4439A4261D986
:10198000D8F8002012F0F00F51D089075AD5A1687D
:10199000002957D14BE000BF58F8081C89035CBFF1
:1019A0000120BDE8F08707E058F8081C490503D47A
:1019B0000120BDE8F08700BFD8F8001001F00C014D
:1019C00004293FD0D8F8001001F00C01082939D0C3
:1019D000D8F8001001F00C010C2933D1D8F804100C
:1019E000D8F8042042F20047C2F3031201F00301C9
:1019F000D8F804300132C0F2F407032904BF41F2E1
:101A00000027C0F27A07B7FBF2F1D8F80420C3F33D
:101A100006235943C2F34162022303EB4202B1FBA6
:101A2000F2F14BF20042C0F2C44291420AD9D8F816
:101A30000010082262F307114FF00109C8F80010E6
:101A400002E000BF4FF00009D8F8001021F00301B8
:101A50000843C8F80000FFF70DFE064641F288373C
:101A6000D8F80000616800F00C00B0EB810F07D0DF
:101A7000FFF700FE801BB842F2D90320BDE8F087D3
:101A80002168880708D4B9F1000F1ED0D8F80000EB
:101A900020F0F00017E000BF480705D5D8F8000097
:101AA00040F4E060C8F80000080706D5D8F8000048
:101AB000072262F30D20C8F80000D8F80000A268E1
:101AC00020F0F0001043C8F80000DAF8000000F041
:101AD0000F00A8421BD9DAF8000020F00F002843BD
:101AE000CAF80000FFF7C6FD064641F2883700BF7E
:101AF000DAF8000000F00F00A84207D0FFF7BAFDA7
:101B0000801BB842F4D90320BDE8F087216848075C
:101B100007D5D8F80000E26820F4E0601043C8F868
:101B20000000080708D5D8F80000216920F46050AB
:101B300040EAC100C8F80000D8F8000042F20041B5
:101B4000C0F2F40100F00C00042808462DD0D8F8AB
:101B5000000000F00C00082841F20020C0F27A00DA
:101B600023D0D8F8002002F00C020C2A1CD1D8F89F
:101B70000420D8F8043002F00302C3F30313D8F8AA
:101B800004700133032A08BF0146B1FBF3F0D8F813
:101B90000410C7F30627C1F341610222784302EB28
:101BA0004101B0FBF1F000E00020D8F8001043F64E
:101BB0009C52C1F30311C0F60002515C40F2EC02EA
:101BC00001F01F0120FA01F140F2D800C2F200003A
:101BD0000068C2F200021160BDE8F047FFF76EBD79
:101BE0002DE9F04182B0002800F00681044600781B
:101BF00041F20006C007C4F2020655D120788007E2
:101C000074D42078000700F197802078400700F115
:101C1000B7802078800600F10781E069002840D075
:101C2000B16801F00C010C2940F05681012800F048
:101C3000E380F068216A00F003028A4240F0DC8011
:101C4000626A6FF00F0300F0F00103EB02129142A1
:101C500040F0D280A16A00F4FE42B2EB012F40F0C6
:101C6000CB80E16A00F07842B2EBC16F40F0C480F3
:101C7000226B0023CFF6E07303EA025200F4C001A6
:101C8000A2F50012914240F0B780616B4FF07E42A6
:101C900002EA016100F0C06001F17E41884240F03B
:101CA000AB800020F1E100BFB06800F00C01F068EB
:101CB00008295BD0032281F00C0122EA00000844CD
:101CC000B0FA80F0400951D16068B0F5803F07D08C
:101CD000B0F5A02F40F0D680306840F4802030600E
:101CE000306840F480303060D7E000BFB068F16801
:101CF00000F00C00042869D001F0030180F00C0012
:101D000081F002010844B0FA80F040095ED1E16838
:101D10003068002900F0CE8040F480703060FFF71A
:101D2000A9FC05463068400500F1EC80FFF7A2FCF5
:101D3000401B0228F6D920E16169D6F894000029F9
:101D400000F08C8040F00100C6F89400FFF792FC90
:101D5000054600BFD6F8940080073FF556AFFFF761
:101D600089FC401B0228F5D907E100BF30688003D9
:101D70007FF544AF606800287FF440AF3CE000BFCF
:101D8000B06D10F0805808D1B06D40F08050B06553
:101D9000B06D00F080500190019847F20007C4F246
:101DA00000073868C0052BD4386840F4807038606C
:101DB000FFF760FC054600BF3868C00520D4FFF778
:101DC00059FC401B0228F7D9D7E000BF3068400516
:101DD00001D5E06880B17068216920F0FE4040EADA
:101DE0000160706040F2D800C2F200000068FFF7A6
:101DF00065FC00283FF405AF012002B0BDE8F0818A
:101E0000A068012808D0052840F09A80D6F89000F4
:101E100040F00400C6F89000D6F8900040F00100B1
:101E2000C6F890009AE000BFA169D6F89800002992
:101E300070D040F00100C6F89800FFF71BFC054683
:101E4000D6F8980080073FF5E8AEFFF713FC401B7B
:101E500002284FF00300F3D917E100BF20F0010082
:101E6000C6F89400FFF706FC054600BFD6F89400BC
:101E700080077FF5CAAEFFF7FDFB401B0228F5D9AE
:101E80007BE000BF3168002821F480313160316887
:101E900021F48021316000F08F80FFF7EBFB0546D5
:101EA000306880033FF5AAAEFFF7E4FB401B6428CF
:101EB000F6D962E020F480703060FFF7DBFB054666
:101EC000306840057FF59DAEFFF7D4FB401B02282C
:101ED0004FF00300F4D9D8E03168022821F0807176
:101EE00031604FD1FFF7C6FB054600BF3068800167
:101EF00040F18E80FFF7BEFB401B02284FF003002D
:101F0000F4D9C2E07068216920F0FE4040EA016027
:101F1000706076E620F00100C6F89800FFF7AAFB93
:101F2000054600BFD6F8980080077FF576AEFFF72C
:101F3000A1FB401B02284FF00300F3D9A5E000BF2E
:101F4000D6F89010002821F00101C6F89010D6F8BC
:101F5000901021F00401C6F890103DD0FFF78AFBE5
:101F6000054641F2883700BFD6F89000800745D477
:101F7000FFF780FB401BB842F6D9032002B0BDE852
:101F8000F08100BFF0684FF6FF7120F00300F060B1
:101F9000F068CFF6EE610840F060FFF76BFB044697
:101FA000306880017FF57DAEFFF764FB001B0228DF
:101FB0004FF00300F4D968E0FFF75CFB054600BF73
:101FC000306880037FF51AAEFFF754FB401B64288E
:101FD0004FF00300F4D958E0FFF74CFB054641F2FF
:101FE000883700BFD6F89000800707D5FFF742FB7F
:101FF000401BB8424FF00300F4D946E0B8F1000F9F
:102000007FF407AEB06D20F08050B06501E600BFF0
:10201000F06848F20C01C0F29F1104F1200700EAB9
:10202000010C8ECF6FF00F00D4E90C5400EB0210BE
:102030000022CFF6E07241EA0C0102EA05520843A1
:10204000A2F500124FF07E4540EA032005EA046540
:10205000104305F17E4540EAC7602843F0603068D0
:1020600040F080703060F06840F08070F060FFF702
:1020700001FB0446306880013FF513AEFFF7FAFA22
:10208000001B02284FF00300F4D902B0BDE8F08134
:10209000411E0020B0EB116F1CBF012070474EF2B3
:1020A0001002CEF2000251604EF62351CEF2000132
:1020B000F0230B700721906011607047C36B012BF8
:1020C00004BF022070474FEAB202032A34D8DFE887
:1020D00002F0031B212700BF0268D36D23F00F031A
:1020E000194344F60003C4F201039A42D16505D0B6
:1020F00044F20041C4F201018A4223D1916E41F0C1
:102100000101916612E000BF0268D36D23F4706391
:102110000AE000BF0268D36D23F4702304E000BF1F
:102120000268D36D23F070631943D165002100224A
:10213000C2630846704700BF01210022C2630846FF
:10214000704700BF916E21F001019166EEE700003B
:10215000002804BF0120704710B50446006C20B968
:102160000020E063204600F015F80220206420687B
:10217000211D00F047FF0120E0666064A064E06478
:1021800020656065A065E06520666066A0662064E5
:10219000002010BD70470000F0B5C36B012B04BFD9
:1021A0000220F0BD4FEAB202032A27D8DFE802F08E
:1021B000022C4A6A0368D1E900C5D1F80CE01A6A1A
:1021C00042F6FF3722F001021A621A4652F8186FDF
:1021D0001C6AC4F20107BB427ADC40F2FF77C4F20A
:1021E0000007BB4200F38480B3F1804F00F0988079
:1021F00040F20047C4F2000790E000BF0121002236
:10220000C2630846F0BD00BF0368D1E900E6D1E92A
:1022100002C11A6A360222F010021A621A4652F8F5
:10222000184F4FF2FF071D6ABE4324F4734461F355
:102230000F3646EA040125F0A0040EF00A0744EA2E
:1022400007173CE00768D1E900C5D1E902313A6AD5
:1022500061F3071522F480723A623A4652F81C4F35
:102260003E6A24F0F30445EA040126F420660CF0EB
:102270000A0546EA052611603E62116821F00C014C
:1022800011605EE00368D1E900E6D1E902C11A6A93
:10229000360222F480521A621A4652F81C4F4FF24C
:1022A000FF071D6ABE4324F4734461F30F3646EA08
:1022B000040125F420440EF00A0744EA07371160B0
:1022C0001F6211684FEA0C2321F44061116038E06D
:1022D00043F6FF77C4F20107BB4215DC42F6004724
:1022E000C4F20107BB421BD043F2004714E000BF19
:1022F00040F60007C4F20007BB4211D040F6004789
:10230000C4F200070AE000BF45F20007C4F201076B
:10231000BB4205D044F20007C4F20107BB4219D109
:1023200026F00306354324F00A070CF00A066EF384
:10233000071537449D611F629F6927F00C079F6155
:102340008B6811681943116000210022C26308469E
:10235000F0BD00BF46F00105E5E70000002804BF1E
:102360000120704710B50446006C20B90020E063DE
:10237000204600F015F8022020642068211D00F09E
:1023800041FE0120E0666064A064E0642065606551
:10239000A065E06520666066A0662064002010BD30
:1023A0007047000080B589B10A1F4FEAB20EBEF136
:1023B000030F15D8DFE80EF0021C243200F14802AA
:1023C000D2F800C0082921D12EE000BF426CC36DB5
:1023D000012A4FF0010208BF012B3FD0104680BDFB
:1023E00000F15802D2F800C008290FD11CE000BF4C
:1023F00000F14C02D2F800C0082907D114E000BF58
:1024000000F15002D2F800C008290DD0042914BFF1
:1024100000F1680200F1600208E000BF00F1540220
:10242000D2F800C00829F1D100F164021368BCF1B0
:10243000010F4FF0010208BF012BCFD1BEF1030FF6
:1024400012D8DFE80EF00319212F00BF00F1480277
:102450000223082913601DD12AE000BF0222426432
:1024600000F15C0226E000BF00F1580202230829B7
:1024700013600FD11CE000BF00F14C0202230829B9
:10248000136007D114E000BF00F1500202230829B5
:1024900013600DD0042914BF00F1680200F160023E
:1024A00008E000BF00F15402022308291360F1D1B3
:1024B00000F16402022313604FEAB103032B4FF0D3
:1024C00001023FF68BAF43F6AC5C0068C0F6000C2F
:1024D0005CF823C0C36801F01F0143EA0C03C3602A
:1024E000036A02FA01F123EA01020262026A11435D
:1024F00042F6FF32C4F20102904201620EDC40F269
:10250000FF71C4F20001884218DCB0F1804F2DD079
:1025100040F20041C4F2000126E000BF43F6FF7123
:10252000C4F20101884215DC42F60041C4F2010107
:1025300088421BD043F2004114E000BF40F6000186
:10254000C4F20001884211D040F60041C4F20001FB
:102550000AE000BF45F20001C4F20101884205D043
:1025600044F20001C4F2010188420DD181680722C2
:10257000C0F20102114006294FF000023FF42EAFD5
:10258000B1F5803F3FF42AAF0168002241F001011C
:102590000160104680BD0000FEE70000FEE700007D
:1025A0007047000070470000B0B5A2B040F2501470
:1025B000C2F200042020C2F20000214641F8440F7C
:1025C0004FF000600A4642F80C0D43F61870C0F652
:1025D00000000138002541E90205012040F21F43B7
:1025E00041E9072041E905104FF6FF70C2F20003F0
:1025F000C0F20100C1E9013541E90D0041E90B00DC
:1026000041F8240CFDF768FE46F27961884255D105
:1026100041F26000CDE90455CDE90255C4F2020053
:102620000168002241F4003101600068032100F4D8
:102630000030019001981920FFF778F81920FFF772
:1026400065F844F20040C4F20100CDE906054FF000
:10265000FF30CDE9090506A80895CDE90B55FFF730
:1026600077FDE8B906A8FFF779FEC8B90121002077
:1026700003910C210290CDE9041006A802A90022C2
:10268000FFF78AFD60B906A806210022FFF716FDB4
:1026900030B906A800210025FFF784FEE0B100BF95
:1026A0000020FEF7D9FE6420FEF7ECFE0020FEF7C6
:1026B000C9FE40F63C70FEF7E5FEF1E70020FEF7AC
:1026C000CBFE6420FEF7DEFE0020FEF7BBFE40F6E8
:1026D0003C70FEF7D7FEF1E76560606830B960686E
:1026E00020B9606810B960680028F6D000206060EA
:1026F000606830B9606820B9606810B96068002807
:10270000F6D022B0B0BD0000F0B58BB040F250154D
:10271000C2F2000505F11000FDF713FE46F27961E3
:10272000884240F0B180286941F6E171884240F06A
:10273000B98005F11400FDF70BFE46F2796188427D
:1027400040F0BE80686941F6E171884240F0C68081
:1027500005F11800FDF703FE46F27961884240F06A
:10276000CB80A86941F6E171884240F0D380C74828
:1027700005F11C040890C5A0D0E90101CDE90901CB
:1027800008A806904FF0FF3007902046FDF7EEFDB9
:1027900046F27966B04240F0CB8006A92046FDF7AC
:1027A00013FEB04240F0D280E8694FF6FF76C0F2E7
:1027B0000106B04240F0D8802046FDF739FE46F2CF
:1027C0007961884240F0DE80E86941F6E171884233
:1027D00040F0E680B0A0D0E9010105F120040591A8
:1027E000AD49EE61CDE9031003A801904FF0FF3031
:1027F00002902046FDF7A6FE46F27967B84240F007
:10280000DD8001A92046FDF7CBFEB84240F0E48010
:10281000286AB04240F0EE802046FDF7F5FE46F211
:102820007961884240F0F480286A41F6E17188427B
:1028300040F0FC8044F65530C0F20100C5E9086064
:10284000A868E9684840013040F0FE80686845F2B9
:102850005551CAF6AA21884240F0F68041F6E1704F
:102860006862A8684CF68172C009F8289CBF4DF2D6
:102870002D316962A9689142C0F0F4804DF22D308B
:10288000686200206860F3E00020FEF7E5FD642048
:10289000FEF7F8FD0020FEF7D5FD40F63C70FEF790
:1028A000F1FDF1E70020FEF7D7FD6420FEF7EAFD19
:1028B0000020FEF7C7FD40F26C70FEF7E3FDF1E784
:1028C0000020FEF7C9FD6420FEF7DCFD0020FEF7C6
:1028D000B9FD40F63C70FEF7D5FDF1E70020FEF7AC
:1028E000BBFD6420FEF7CEFD0020FEF7ABFD40F2FD
:1028F0006C70FEF7C7FDF1E70020FEF7ADFD642028
:10290000FEF7C0FD0020FEF79DFD40F63C70FEF78F
:10291000B9FDF1E70020FEF79FFD6420FEF7B2FD50
:102920000020FEF78FFD40F26C70FEF7ABFDF1E783
:102930000020FEF791FD6420FEF7A4FD0020FEF7C5
:1029400081FD40F63C70FEF79DFDF1E70020FEF7AB
:1029500083FD6420FEF796FD0020FEF773FD40F630
:102960003C70FEF78FFDF1E70020FEF775FD642057
:10297000FEF788FD0020FEF765FD40F26C70FEF763
:1029800081FDF1E70020FEF767FD6420FEF77AFD88
:102990000020FEF757FD40F63C70FEF773FDF1E7AF
:1029A0000020FEF759FD6420FEF76CFD0020FEF7C5
:1029B00049FD40F26C70FEF765FDF1E70020FEF77F
:1029C0004BFD6420FEF75EFD0020FEF73BFD40F668
:1029D0003C70FEF757FDF1E70020FEF73DFD642057
:1029E000FEF750FD0020FEF72DFD40F63C70FEF78F
:1029F00049FDF1E70020FEF72FFD6420FEF742FDC0
:102A00000020FEF71FFD40F26C70FEF73BFDF1E782
:102A10000020FEF721FD6420FEF734FD0020FEF7C4
:102A200011FD40F63C70FEF72DFDF1E70020FEF7AA
:102A300013FD6420FEF726FD0020FEF703FD40F2A3
:102A40006C70FEF71FFDF1E70020FEF705FD642026
:102A5000FEF718FD0020FEF7F5FC40F63C70FEF78F
:102A600011FDF1E70021F828696084BF0BB0F0BDCB
:102A70000020FEF7F1FC6420FEF704FD0020FEF7C5
:102A8000E1FC40F26C70FEF7FDFCF1E7000000088D
:102A9000173F00080000000020000020FFFF012079
:102AA00000000000F0B581B040F25015C2F2000500
:102AB00005F11000FDF745FC46F27961884261D1CD
:102AC000286941F6E17188426AD105F11400FDF7E9
:102AD0003FFC46F27961884270D1686941F6E17144
:102AE000884279D105F11800FDF739FC46F2796189
:102AF000884240F07F80A86941F6E171884240F049
:102B00008780E8694FF6FF76C0F20106B04215D122
:102B100005F11C042046FDF729FC46F27967B8420E
:102B200040F0928005F128012046FDF74DFCB842A7
:102B300040F09880E869B04240F0A28005F11C00A6
:102B4000FDF776FC46F2796188426FD1E86941F67B
:102B5000E171884200F0A28044F65531C0F20101D3
:102B6000884200F09F8000BF0020FEF775FC6420C3
:102B7000FEF788FC0020FEF765FC40F26C70FEF763
:102B800081FCF1E70020FEF767FC6420FEF77AFC89
:102B90000020FEF757FC40F63C70FEF773FCF1E7AF
:102BA0000020FEF759FC6420FEF76CFC0020FEF7C5
:102BB00049FC40F26C70FEF765FCF1E70020FEF77F
:102BC0004BFC6420FEF75EFC0020FEF73BFC40F669
:102BD0003C70FEF757FCF1E70020FEF73DFC642057
:102BE000FEF750FC0020FEF72DFC40F26C70FEF763
:102BF00049FCF1E70020FEF72FFC6420FEF742FCC1
:102C00000020FEF71FFC40F63C70FEF73BFCF1E7AE
:102C10000020FEF721FC6420FEF734FC0020FEF7C4
:102C200011FC40F26C70FEF72DFCF1E70020FEF77E
:102C300013FC6420FEF726FC0020FEF703FC40F6A0
:102C40003C70FEF71FFCF1E70020FEF705FC642056
:102C5000FEF718FC0020FEF7F5FB40F63C70FEF78F
:102C600011FCF1E70020FEF7F7FB6420FEF70AFCF9
:102C70000020FEF7E7FB40F63C70FEF703FCF1E7AF
:102C80000020FEF7E9FB6420FEF7FCFB0020FEF7C6
:102C9000D9FB40F26C70FEF7F5FBF1E70020EE6126
:102CA000FEF7E4FB286AB04212D105F12004204669
:102CB000FDF748FC46F27967B84239D105F1300199
:102CC0002046FDF76DFCB84240D1286AB0424BD196
:102CD00005F12000FDF798FC46F27961884219D190
:102CE000286A41F6E17188424CD044F65531C0F271
:102CF0000101884247D000BF0020FEF7ADFB6420F1
:102D0000FEF7C0FB0020FEF79DFB40F26C70FEF763
:102D1000B9FBF1E70020FEF79FFB6420FEF7B2FB52
:102D20000020FEF78FFB40F63C70FEF7ABFBF1E7AF
:102D30000020FEF791FB6420FEF7A4FB0020FEF7C5
:102D400081FB40F63C70FEF79DFBF1E70020FEF7AB
:102D500083FB6420FEF796FB0020FEF773FB40F632
:102D60003C70FEF78FFBF1E70020FEF775FB642057
:102D7000FEF788FB0020FEF765FB40F26C70FEF763
:102D800081FBF1E72E6244F65530C0F20100686223
:102D9000A868E968484001301CD1686845F255517F
:102DA000CAF6AA21884215D141F6E1706862A86886
:102DB0004CF68172C009F8289CBF4DF22D31696232
:102DC000A968914214D34DF22D30686200206860EA
:102DD00014E000BF0020FEF73FFB6420FEF752FB2B
:102DE0000020FEF72FFB40F63C70FEF74BFBF1E7AF
:102DF0000021F828696084BF01B0F0BD0020FEF713
:102E00002BFB6420FEF73EFB0020FEF71BFB40F28D
:102E10006C70FEF737FBF1E743F20802C4F20202DE
:102E2000136843F0010342F8083900F0F7B90000D5
:102E300043F20800C4F20200016841F001010160A0
:102E4000002140F8041C40F2A010C2F2000000680B
:102E5000B0F5805F08BF704741F24800C4F202003D
:102E6000016821F4805101607047000041F2480080
:102E7000C4F20200016840F2A01201F48051C2F2D3
:102E800000021160016841F48051016043F20800C2
:102E9000C4F20200016841F001010160002140F824
:102EA000041CE02101604FF0FF31816041F6B75111
:102EB000C0F2C141C1607047B0B5002321B34FF0EB
:102EC000000C00BF50F80CE00CF104048C4283EAC3
:102ED0000E0319D200EB0C0EDEF804400CF10805CD
:102EE0008D4283EA04030FD2DEF808400CF10C0592
:102EF0008D4283EA040307D2DEF80C500CF1100C6B
:102F00008C4583EA0503DDD342F69550C0F24800B4
:102F1000934204BF44F25D40C0F25100B0BD0000D6
:102F200010B529B38446002000230EE0D2F808E053
:102F300003F10C048C4280EA0E0028BF10BDD26859
:102F400010338B4280EA020010D25CF803E01A1DB5
:102F50008A4280EA0E0009D20CEB0302D2F804E0A8
:102F600003F108048C4280EA0E00DFD310BD00BFDD
:102F7000002010BD40F2A411C2F20001EFF3108056
:102F8000086072B67047000040F2A410C2F2000060
:102F9000006880F31088704770470000FEF770BB30
:102FA0004EF68850CEF20000016841F470010160D5
:102FB0007047000044F21040C4F201000168890724
:102FC0001FD540F25011C2F200010A88436A0B80FB
:102FD0004B68002B18BF704703689B050CD408880A
:102FE000801A80B288608868C043C86045F2555036
:102FF000CAF6AA204860704701684FF6FF52114098
:103000000160704780B540F6FF330268C4F20003E8
:1030100043F2FF3C9842C4F2010C0BDD60452FDC0B
:1030200040F60043C4F20003984235D042F6004314
:103030002EE000BFB0F1804F2ED040F20043C4F22A
:103040000003984228D040F60003C4F200039842DF
:1030500022D0604526DC40F2FF73C4F200039842A0
:1030600036DD40F60003C4F20003984244D040F637
:103070000043C4F2000398423ED042F6004337E0DA
:1030800045F20003C4F20103984205D043F2004325
:10309000C4F201039842DCD14B6822F070021A435B
:1030A0006045D8DD44F2FF33C4F20103984217DDD6
:1030B00044F20043C4F2010398421DD045F20003DC
:1030C000C4F20103984217D044F6000310E000BF99
:1030D000B0F1804F10D040F20043C4F2000309E089
:1030E00043F20043C4F20103984205D044F20003C6
:1030F000C4F20103984203D1CB6822F440721A4310
:103100004B6922F0800E8A6843EA0E03D1F800C0B2
:103110000360C262A0F18042A2F596324FEAB22269
:10312000092AC0F828C008D8012303FA02F240F2A5
:10313000E5231A421CBF096901630121416180BD79
:10314000FEE7000094B0FEF7A9FA06AC201D2C2182
:10315000FEF7EEF80A2006904FF4807009904020A8
:103160000A9001200B9002200421CDE90D00552288
:10317000CDE9121020460F911092FEF731FD68B193
:103180000020FEF769F96420FEF77CF90020FEF7C5
:1031900059F940F26C70FEF775F9F1E70F200190D4
:1031A000032002900020CDE90300059001A804212E
:1031B000FEF78CFB70B100BF0020FEF74DF96420D4
:1031C000FEF760F90020FEF73DF940F26C70FEF763
:1031D00059F9F1E74FF40070FEF7E4FA70B100BF5F
:1031E0000020FEF739F96420FEF74CF90020FEF7C5
:1031F00029F940F26C70FEF745F9F1E70020FEF77F
:10320000FBF8FFF7D1F9FFF77FFA0A20FEF73AF94A
:10321000FFF748FC0320FEF735F9F9E710B4002367
:1032200010C8146001338B42FAD11D4C1068604005
:1032300010BC7047F0B41B4A194D89000023C458D4
:1032400027006F40FF263740BF00D7592E0A77402E
:103250003D0027003F0A6F40FF263740BF00D75987
:103260002E0A77403D0027003F0C6F40FF26374075
:10327000BF00D7592E0A77403D0027003F0E6F4010
:10328000FF263740BF00D7592E0A77403D00043350
:103290008B42D4D1024C65402800F0BC704700003E
:1032A000FFFFFFFF7C38000820B40546284620BCFD
:1032B000704720B4664A0023D058D558854205D1BE
:1032C0000433142BF8DD012020BC7047002020BC03
:1032D000704720B45E4A0023D158D5588D4205D19D
:1032E0000433142BF8DD012020BC7047002020BCE3
:1032F000704720B45648002142584558954205D1A0
:1033000004311429F8DD012020BC7047002020BCC6
:10331000704720B44E480021435845589D4205D17E
:1033200004311429F8DD012020BC7047002020BCA6
:10333000704730B44648002144584558A54205D14D
:1033400004311429F8DD012030BC7047002030BC66
:10335000704760B43E48002146584558B54205D1F3
:1033600004311429F8DD012060BC7047002060BCE6
:103370007047A0B43648002147584558BD4205D192
:1033800004311429F8DD0120A0BC70470020A0BC46
:103390007047424624B42E4800214558A84645456A
:1033A00006D104311429F8DD012024BC9046704771
:1033B000002024BC904670474A4624B4244800218B
:1033C0004558A9464D4506D104311429F8DD0120A0
:1033D00024BC91467047002024BC91467047524659
:1033E00024B41B4800214558AA46554506D104314E
:1033F0001429F8DD012024BC92467047002024BC2B
:10340000924670475A4624B4114800214558AB46AD
:103410005D4506D104311429F8DD012024BC934612
:103420007047002024BC93467047624624B4084885
:1034300000214558AC46654506D104311429F8DD14
:10344000012024BC94467047002024BC9446704759
:103450007C3C000830B51FB4FFF78CFD1FBCEFF3B8
:1034600008834149096881F30888EFF3088283F3F0
:1034700008888A4225D13D49096881F30888EFF31D
:10348000088283F308888A421BD1EFF31484EFF398
:103490001485374909680D4085F31488BFF36F8F91
:1034A000344900228B5808B404323C2AFADD002249
:1034B00008BC584001320F2AFADD84F31488BFF3A8
:1034C0006F8F1FB4FFF760FD1FBC30BC02BC8E467F
:1034D000704770B50FB4FFF74DFD0FBCEFF30983D4
:1034E0002149096881F30988EFF3098283F3098888
:1034F0008A4230D11D49096881F30988EFF30982B6
:1035000083F309888A4226D1EFF31484EFF31485FC
:1035100002210D4385F31488BFF36F8FEFF3098504
:10352000154E403686F30988BFF36F8F134900228A
:103530008B5808B404323C2AFADD002208BC5840FB
:1035400001320F2AFADD85F30988BFF36F8F84F308
:103550001488BFF36F8F0FB4FFF716FD0FBC70BC5C
:1035600002BC8E46704700001C3E0008203E00084A
:10357000243E0008F43C000870000020343D0008A0
:10358000EFF300814901490981F30088EFF30081DD
:1035900011F07E4140F01880013940F11580023170
:1035A000C0F012805FF000414918C0F10D805FF05B
:1035B000FF3181F30A02EFF30081B1F1384F40F09F
:1035C000038002490968484070470000743D0008C4
:1035D000F0B413005B425B1E934C05008D4245D056
:1035E000002906D00025665987592D1D4F51142DED
:1035F000F9DD0025665982512D1D142DFADD0025B7
:1036000066598759974231D183512D1D142DF7DD0D
:103610000025665987599F4228D182512D1D142DAE
:10362000F7DD18252D1F6659875997421ED1835102
:10363000002DF7D818252D1F665987599F4215D19F
:103640008251002DF7D800256659875997420DD130
:103650002D1D142DF8DD002906DD18254F592D1FCD
:1036600066598751002DF9D8012000E00020F0BCF8
:103670007047F0B413005B425B1E6B4C002906D010
:103680000425665987592D1D4F51142DF9DD042548
:10369000665982512D1D142DFADD0425665987596E
:1036A000974231D183512D1D142DF7DD0425665924
:1036B00087599F4228D182512D1D142DF7DD1825E1
:1036C0002D1F6659875997421ED18351042DF7D873
:1036D00018252D1F665987599F4215D18251042DF7
:1036E000F7D804256659875997420DD12D1D142D01
:1036F000F8DD002906DD18254F592D1F6659875121
:10370000042DF9D8012000E00020F0BC7047F0B48F
:1037100013005B425B1E444C002906D0002566590D
:1037200087592D1D4F51102DF9DD00256659825105
:103730002D1D102DFADD002566598759974231D18C
:1037400083512D1D102DF7DD0025665987599F42A5
:1037500028D182512D1D102DF7DD14252D1F6659FE
:10376000875997421ED18351002DF7D814252D1F5C
:10377000665987599F4215D18251002DF7D80025EF
:103780006659875997420DD12D1D102DF8DD00295E
:1037900006DD14254F592D1F66598751002DF9D884
:1037A000012000E00020F0BC7047F0B40A00524253
:1037B000521E1D4C002831D00425665981512D1D03
:1037C000202DFADD0425665987598F4228D1825170
:1037D0002D1D202DF7DD04256659875997421FD1ED
:1037E00081512D1D202DF7DD24252D1F6659875968
:1037F0008F4215D18251042DF7D824252D1F6659EB
:10380000875997420CD18151042DF7D80425665968
:1038100087598F4204D12D1D202DF8DD012000E0B5
:103820000020F0BC70470000783D0008EFF31480E2
:103830007047EFF305807047F1EE100A4FF6FF7105
:10384000C0F2C03120EA010040F04070E1EE100A01
:1038500070470000027B0C00BC385800DA3650007C
:103860000001020021D90400610A0008C5AB000074
:10387000A10B0008CE52C455510C000800000000F6
:10388000963007772C610EEEBA51099919C46D076D
:103890008FF46A7035A563E9A395649E3288DB0EC8
:1038A000A4B8DC791EE9D5E088D9D2972B4CB609AB
:1038B000BD7CB17E072DB8E7911DBF906410B71D88
:1038C000F220B06A4871B9F3DE41BE847DD4DA1AC1
:1038D000EBE4DD6D51B5D4F4C785D38356986C13F2
:1038E000C0A86B647AF962FDECC9658A4F5C01146B
:1038F000D96C0663633D0FFAF50D088DC8206E3B49
:103900005E10694CE44160D5727167A2D1E4033C5A
:1039100047D4044BFD850DD26BB50AA5FAA8B53581
:103920006C98B242D6C9BBDB40F9BCACE36CD83270
:10393000755CDF45CF0DD6DC593DD1ABAC30D92617
:103940003A00DE518051D7C81661D0BFB5F4B4211A
:1039500023C4B3569995BACF0FA5BDB89EB8022817
:103960000888055FB2D90CC624E90BB1877C6F2F9C
:10397000114C6858AB1D61C13D2D66B69041DC7697
:103980000671DB01BC20D2982A10D5EF8985B17170
:103990001FB5B606A5E4BF9F33D4B8E8A2C907781F
:1039A00034F9000F8EA8099618980EE1BB0D6A7FB6
:1039B0002D3D6D08976C6491015C63E6F4516B6B6F
:1039C00062616C1CD83065854E0062F2ED95066C24
:1039D0007BA5011BC1F4088257C40FF5C6D9B06599
:1039E00050E9B712EAB8BE8B7C88B9FCDF1DDD62F6
:1039F000492DDA15F37CD38C654CD4FB5861B24D5C
:103A0000CE51B53A7400BCA3E230BBD441A5DF4A25
:103A1000D795D83D6DC4D1A4FBF4D6D36AE96943E8
:103A2000FCD96E34468867ADD0B860DA732D044493
:103A3000E51D03335F4C0AAAC97C0DDD3C710550BE
:103A4000AA41022710100BBE86200CC925B5685765
:103A5000B3856F2009D466B99FE461CE0EF9DE5EAE
:103A600098C9D9292298D0B0B4A8D7C7173DB3595F
:103A7000810DB42E3B5CBDB7AD6CBAC02083B8EDF0
:103A8000B6B3BF9A0CE2B6039AD2B1743947D5EAFD
:103A9000AF77D29D1526DB048316DC73120B63E32C
:103AA000843B64943E6A6D0DA85A6A7A0BCF0EE48B
:103AB0009DFF099327AE000AB19E077D44930FF046
:103AC000D2A3088768F2011EFEC206695D5762F73D
:103AD000CB67658071366C19E7066B6E761BD4FE7A
:103AE000E02BD3895A7ADA10CC4ADD676FDFB9F957
:103AF000F9EFBE8E43BEB717D58EB060E8A3D6D619
:103B00007E93D1A1C4C2D83852F2DF4FF167BBD146
:103B10006757BCA6DD06B53F4B36B248DA2B0DD849
:103B20004C1B0AAFF64A0336607A0441C3EF60DFEC
:103B300055DF67A8EF8E6E3179BE69468CB361CBD5
:103B40001A8366BCA0D26F2536E2685295770CCCFA
:103B500003470BBBB91602222F260555BE3BBAC53B
:103B6000280BBDB2925AB42B046AB35CA7FFD7C22C
:103B700031CFD0B58B9ED92C1DAEDE5BB0C2649B1D
:103B800026F263EC9CA36A750A936D02A906099C50
:103B90003F360EEB8567077213570005824ABF95C3
:103BA000147AB8E2AE2BB17B381BB60C9B8ED29246
:103BB0000DBED5E5B7EFDC7C21DFDB0BD4D2D3869D
:103BC00042E2D4F1F8B3DD686E83DA1FCD16BE8110
:103BD0005B26B9F6E177B06F7747B718E65A0888E1
:103BE000706A0FFFCA3B06665C0B0111FF9E658F72
:103BF00069AE62F8D3FF6B6145CF6C1678E20AA01C
:103C0000EED20DD75483044EC2B30339612667A7A1
:103C1000F71660D04D476949DB776E3E4A6AD1AEF0
:103C2000DC5AD6D9660BDF40F03BD83753AEBCA97F
:103C3000C59EBBDE7FCFB247E9FFB5301CF2BDBDEC
:103C40008AC2BACA3093B353A6A3B4240536D0BAF5
:103C50009306D7CD2957DE54BF67D9232E7A66B392
:103C6000B84A61C4021B685D942B6F2A37BE0BB43F
:103C7000A18E0CC31BDF055A8DEF022D0000000042
:103C800000000000FFFFFFFFAAAAAAAA555555553C
:103C9000FFFFFFFFB3320008C3031300D332000855
:103CA000E6191800F332000894CE2F0013330008F1
:103CB000577E5900333300086533500053330008F2
:103CC0005B9D480073330008357A3C00933300084D
:103CD000517C0A00B9330008AB4A0100DF33000809
:103CE0005A295200053400083EDF4C002B340008EE
:103CF000CB062800270B3100124E31008A533100C9
:103D00007C6F3100B2F83100693D3200905D3200C5
:103D1000CF8032008B9F3200A0AB32007AD23200CB
:103D2000D6F73200AAAAAAAA555555550000000098
:103D3000FFFFFFFF2741F9FF7E4CF9FF804DF9FFA0
:103D40006052F9FF9E53F9FFB280F9FF4C81F9FFF1
:103D5000158CF9FF0B92F9FFAC9EF9FF529FF9FF0A
:103D6000CAE6F9FFAAAAAAAA5555555500000000AF
:103D7000FFFFFFFF75D3FD55FCFFFFFF00000000B4
:103D800004000000080000000C000000100000000B
:103D900014000000180000001C00000000000000DB
:103DA00000000000010203040607080902000000E9
:103DB000040000000800000010000000FDFFFFFFED
:103DC000FBFFFFFFF7FFFFFFEFFFFFFF283E0008AD
:103DD000000000202000000014020008483E0008F7
:103DE00020000020D000000014020008183F000846
:103DF000F0000020BC00000030020008183F00085E
:103E0000B00100200004000030020008183F000844
:103E1000B00500200002000030020008A8AAAAAAEB
:103E200054555555FDFFFFFF000000000000000045
:103E30000000000000000000000000000000000082
:103E40000000000000000000000000000000000072
:103E50000000000000000000000000000000000062
:103E60000000000000000000000000000000000052
:103E70000000000000000000000000000000000042
:103E80000000000000000000000000000000000032
:103E900000000000FFFFFFFFADDEADDEADDEADDEFA
:103EA000ADDEADDEADDEADDEADDEADDEADDEADDEBA
:103EB000ADDEADDEADDEADDEADDEADDEADDEADDEAA
:103EC000ADDEADDEADDEADDEADDEADDEADDEADDE9A
:103ED000ADDEADDEADDEADDE0000000000000000B6
:103EE0000000000000000000FFFFFFFF00000000D6
:103EF000000000000000000000000000FFFFFFFFC6
:103F00001000000001000000FFFF0708000000088B
:083F1000000000200024F40071
:04000005080001D915
:00000001FF
